{
  "contractName": "ENS",
  "abi": [
    {
      "inputs": [],
      "payable": false,
      "stateMutability": "nonpayable",
      "type": "constructor"
    },
    {
      "constant": false,
      "inputs": [
        {
          "name": "_name",
          "type": "string"
        }
      ],
      "name": "reserveName",
      "outputs": [
        {
          "name": "",
          "type": "bool"
        }
      ],
      "payable": true,
      "stateMutability": "payable",
      "type": "function"
    },
    {
      "constant": false,
      "inputs": [
        {
          "name": "_name",
          "type": "string"
        }
      ],
      "name": "releaseName",
      "outputs": [
        {
          "name": "",
          "type": "bool"
        }
      ],
      "payable": false,
      "stateMutability": "nonpayable",
      "type": "function"
    },
    {
      "constant": false,
      "inputs": [
        {
          "name": "_name",
          "type": "string"
        }
      ],
      "name": "claimOwnership",
      "outputs": [
        {
          "name": "",
          "type": "bool"
        }
      ],
      "payable": false,
      "stateMutability": "nonpayable",
      "type": "function"
    },
    {
      "constant": false,
      "inputs": [
        {
          "name": "_name",
          "type": "string"
        },
        {
          "name": "_amount",
          "type": "uint256"
        }
      ],
      "name": "sendEther",
      "outputs": [
        {
          "name": "",
          "type": "bool"
        }
      ],
      "payable": true,
      "stateMutability": "payable",
      "type": "function"
    },
    {
      "constant": true,
      "inputs": [
        {
          "name": "_name",
          "type": "string"
        }
      ],
      "name": "getOwner",
      "outputs": [
        {
          "name": "",
          "type": "address"
        }
      ],
      "payable": false,
      "stateMutability": "view",
      "type": "function"
    },
    {
      "constant": true,
      "inputs": [
        {
          "name": "_name",
          "type": "string"
        }
      ],
      "name": "getHighestBidder",
      "outputs": [
        {
          "name": "",
          "type": "address"
        }
      ],
      "payable": false,
      "stateMutability": "view",
      "type": "function"
    },
    {
      "constant": true,
      "inputs": [
        {
          "name": "_name",
          "type": "string"
        }
      ],
      "name": "getBiddingVal",
      "outputs": [
        {
          "name": "",
          "type": "uint256"
        }
      ],
      "payable": false,
      "stateMutability": "view",
      "type": "function"
    }
  ],
  "bytecode": "0x6060604052341561000f57600080fd5b610e128061001e6000396000f300606060405260043610610083576000357c0100000000000000000000000000000000000000000000000000000000900463ffffffff1680630c25648f146100885780634aaf4a1214610125578063884b564a146101c2578063ca18b9e214610235578063d310bc321461029f578063de0debd514610314578063f545c28314610385575b600080fd5b341561009357600080fd5b6100e3600480803590602001908201803590602001908080601f016020809104026020016040519081016040528093929190818152602001838380828437820191505050505050919050506103fa565b604051808273ffffffffffffffffffffffffffffffffffffffff1673ffffffffffffffffffffffffffffffffffffffff16815260200191505060405180910390f35b341561013057600080fd5b610180600480803590602001908201803590602001908080601f0160208091040260200160405190810160405280939291908181526020018383808284378201915050505050509190505061048f565b604051808273ffffffffffffffffffffffffffffffffffffffff1673ffffffffffffffffffffffffffffffffffffffff16815260200191505060405180910390f35b61021b600480803590602001908201803590602001908080601f01602080910402602001604051908101604052809392919081815260200183838082843782019150505050505091908035906020019091905050610523565b604051808215151515815260200191505060405180910390f35b610285600480803590602001908201803590602001908080601f0160208091040260200160405190810160405280939291908181526020018383808284378201915050505050509190505061070e565b604051808215151515815260200191505060405180910390f35b34156102aa57600080fd5b6102fa600480803590602001908201803590602001908080601f01602080910402602001604051908101604052809392919081815260200183838082843782019150505050505091905050610961565b604051808215151515815260200191505060405180910390f35b341561031f57600080fd5b61036f600480803590602001908201803590602001908080601f01602080910402602001604051908101604052809392919081815260200183838082843782019150505050505091905050610b4e565b6040518082815260200191505060405180910390f35b341561039057600080fd5b6103e0600480803590602001908201803590602001908080601f01602080910402602001604051908101604052809392919081815260200183838082843782019150505050505091905050610bc3565b604051808215151515815260200191505060405180910390f35b60006002826040518082805190602001908083835b602083101515610434578051825260208201915060208101905060208303925061040f565b6001836020036101000a038019825116818451168082178552505050505050905001915050908152602001604051809103902060009054906101000a900473ffffffffffffffffffffffffffffffffffffffff169050919050565b600080826040518082805190602001908083835b6020831015156104c857805182526020820191506020810190506020830392506104a3565b6001836020036101000a038019825116818451168082178552505050505050905001915050908152602001604051809103902060009054906101000a900473ffffffffffffffffffffffffffffffffffffffff169050919050565b6000808234101580156105ee5750600073ffffffffffffffffffffffffffffffffffffffff166000856040518082805190602001908083835b602083101515610581578051825260208201915060208101905060208303925061055c565b6001836020036101000a038019825116818451168082178552505050505050905001915050908152602001604051809103902060009054906101000a900473ffffffffffffffffffffffffffffffffffffffff1673ffffffffffffffffffffffffffffffffffffffff1614155b156106c6576000846040518082805190602001908083835b60208310151561062b5780518252602082019150602081019050602083039250610606565b6001836020036101000a038019825116818451168082178552505050505050905001915050908152602001604051809103902060009054906101000a900473ffffffffffffffffffffffffffffffffffffffff1690508073ffffffffffffffffffffffffffffffffffffffff166108fc849081150290604051600060405180830381858888f1935050505015156106c157600080fd5b610707565b3373ffffffffffffffffffffffffffffffffffffffff166108fc849081150290604051600060405180830381858888f19350505050151561070657600080fd5b5b5092915050565b600081600080826040518082805190602001908083835b60208310151561074a5780518252602082019150602081019050602083039250610725565b6001836020036101000a038019825116818451168082178552505050505050905001915050908152602001604051809103902060009054906101000a900473ffffffffffffffffffffffffffffffffffffffff1673ffffffffffffffffffffffffffffffffffffffff161415156107c057600080fd5b6001836040518082805190602001908083835b6020831015156107f857805182526020820191506020810190506020830392506107d3565b6001836020036101000a03801982511681845116808217855250505050505090500191505090815260200160405180910390205434111561095657336002846040518082805190602001908083835b60208310151561086c5780518252602082019150602081019050602083039250610847565b6001836020036101000a038019825116818451168082178552505050505050905001915050908152602001604051809103902060006101000a81548173ffffffffffffffffffffffffffffffffffffffff021916908373ffffffffffffffffffffffffffffffffffffffff160217905550346001846040518082805190602001908083835b60208310151561091657805182526020820191506020810190506020830392506108f1565b6001836020036101000a0380198251168184511680821785525050505050509050019150509081526020016040518091039020819055506001915061095b565b600091505b50919050565b6000813373ffffffffffffffffffffffffffffffffffffffff166000826040518082805190602001908083835b6020831015156109b3578051825260208201915060208101905060208303925061098e565b6001836020036101000a038019825116818451168082178552505050505050905001915050908152602001604051809103902060009054906101000a900473ffffffffffffffffffffffffffffffffffffffff1673ffffffffffffffffffffffffffffffffffffffff16141515610a2957600080fd5b600080846040518082805190602001908083835b602083101515610a625780518252602082019150602081019050602083039250610a3d565b6001836020036101000a038019825116818451168082178552505050505050905001915050908152602001604051809103902060006101000a81548173ffffffffffffffffffffffffffffffffffffffff021916908373ffffffffffffffffffffffffffffffffffffffff16021790555060006001846040518082805190602001908083835b602083101515610b0d5780518252602082019150602081019050602083039250610ae8565b6001836020036101000a0380198251168184511680821785525050505050509050019150509081526020016040518091039020819055506001915050919050565b60006001826040518082805190602001908083835b602083101515610b885780518252602082019150602081019050602083039250610b63565b6001836020036101000a0380198251168184511680821785525050505050509050019150509081526020016040518091039020549050919050565b6000813373ffffffffffffffffffffffffffffffffffffffff166002826040518082805190602001908083835b602083101515610c155780518252602082019150602081019050602083039250610bf0565b6001836020036101000a038019825116818451168082178552505050505050905001915050908152602001604051809103902060009054906101000a900473ffffffffffffffffffffffffffffffffffffffff1673ffffffffffffffffffffffffffffffffffffffff16141515610c8b57600080fd5b336000846040518082805190602001908083835b602083101515610cc45780518252602082019150602081019050602083039250610c9f565b6001836020036101000a038019825116818451168082178552505050505050905001915050908152602001604051809103902060006101000a81548173ffffffffffffffffffffffffffffffffffffffff021916908373ffffffffffffffffffffffffffffffffffffffff16021790555060006002846040518082805190602001908083835b602083101515610d6f5780518252602082019150602081019050602083039250610d4a565b6001836020036101000a038019825116818451168082178552505050505050905001915050908152602001604051809103902060006101000a81548173ffffffffffffffffffffffffffffffffffffffff021916908373ffffffffffffffffffffffffffffffffffffffff160217905550509190505600a165627a7a7230582059557d812366e23a98b15808c5e5211766ad74622f1b725af53b8e1b97e06b9f0029",
  "source": "pragma solidity ^0.4.19;\n\ncontract ENS {\n    mapping(string => address) owners;\n    mapping(string => uint256) biddingVal;\n    mapping(string => address) highestBidders;\n    \n    modifier isNameExists(string _name) {\n        require(owners[_name] == 0);\n        _;\n    }\n    \n    modifier isOwner(string _name) {\n        require(owners[_name] == msg.sender);\n        _;\n    }\n    \n    modifier isHighestBidder(string _name) {\n        require(highestBidders[_name] == msg.sender);\n        _;\n    }\n    \n    \n    function ENS() public {\n    }\n    \n    function reserveName(string _name) public payable isNameExists(_name) returns (bool) {\n        if (msg.value > biddingVal[_name]) {\n            highestBidders[_name] = msg.sender;\n            biddingVal[_name] = msg.value;\n            return true;\n        }\n        \n        return false;\n    }\n    \n    function releaseName(string _name) public isOwner(_name) returns (bool) {\n        owners[_name] = 0;\n        biddingVal[_name] = 0;\n        return true;\n    }\n    \n    function claimOwnership(string _name) public isHighestBidder(_name) returns (bool) {\n        owners[_name] = msg.sender;\n        highestBidders[_name] = 0;\n    }\n    \n    function sendEther(string _name, uint256 _amount) public payable returns (bool) {\n        if (msg.value >= _amount && owners[_name] != 0x0000000000000000000000000000000000000000) {\n            address owner = owners[_name];\n            owner.transfer(_amount);\n        } else {\n            msg.sender.transfer(_amount);\n        }\n    }\n    \n    function getOwner(string _name) public constant returns (address) {\n        return owners[_name];\n    }\n    \n    function getHighestBidder(string _name) public constant returns (address) {\n        return highestBidders[_name];\n    }\n    \n    function getBiddingVal(string _name) public constant returns (uint256) {\n        return biddingVal[_name];\n    }\n}",
  "sourcePath": "/Users/markle94/LePhuongViet/gitProjects/consensys/contracts/ENS.sol",
  "compiler": {
    "name": "solc",
    "version": "0.4.19+commit.c4cbbb05.Emscripten.clang"
  },
  "schemaVersion": "1.0.1",
  "updatedAt": "2018-02-26T14:41:42.831Z"
}